:020000040800F2
:1000000010720020890100080D840008696600084C
:10001000156E00088F2F000849F700080000000047
:100020000000000000000000000000009B0100082C
:100030000134000800000000CB0C0008D1E60008E5
:10004000A3010008A3010008A3010008A301000800
:10005000A3010008A3010008A3010008A3010008F0
:10006000A3010008A3010008A3010008A3010008E0
:10007000A3010008A3010008A3010008A3010008D0
:10008000A3010008A3010008A3010008A3010008C0
:10009000A3010008A3010008A3010008A3010008B0
:1000A000A3010008A3010008A3010008A3010008A0
:1000B000A301000861E90008E1E90008A3010008C4
:1000C000A3010008A3010008A3010008A301000880
:1000D000A3010008F1EF0008E1F100087DF200083B
:1000E000A3010008A3010008A3010008000000000C
:1000F0000000000000000000000000000000000000
:1001000000000000A3010008A30100080000000097
:1001100000000000000000000000000000000000DF
:10012000A3010008A3010008A3010008A30100081F
:1001300000000000000000000000000000000000BF
:10014000000000000000000000000000A301000803
:100150000000000000000000A3010008A301000847
:10016000A30100080000000000000000A301000837
:10017000DFF810D000F0F0FC00480047E52401084B
:10018000AFF3008010720020064880470648004701
:10019000FEE7FEE7FEE7FEE7FEE7FEE7FEE7FEE737
:1001A000FEE7FEE711E700087101000872B670472C
:1001B00062B67047EFF3108072B6704780F3108814
:1001C000704730BF704720BF7047B0FA80F070476B
:1001D00090FAA0F0B0FA80F0704790FAA0F0704763
:1001E0002DE9F05F0546002092469B46884606466C
:1001F000814640241BE0284641464746224600F0FF
:10020000BCFB53465A46C01A914110D311461846BA
:10021000224600F0A3FB2D1A67EB01084F46224649
:100220000120002100F09AFB17EB00094E41201E2F
:10023000A4F10104DFDC484631462A464346BDE8C6
:10024000F09F40EA01039B0703D009E008C9121F91
:1002500008C0042AFAD203E011F8013B00F8013B80
:10026000521EF9D27047D2B201E000F8012B491EAC
:10027000FBD270470022F6E710B513460A46044643
:100280001946FFF7F0FF204610BD30B505462A4657
:100290000B4612F8010B13F8014B08B1A042F8D03D
:1002A0001CB1002802D06D1CF1E7284630BD421C6D
:1002B00010F8011B0029FBD1801A704730B50546A4
:1002C0000020034600E05B1C934205D2EC5CC85C56
:1002D000201A01D1002CF6D130BD000070B50F4DB1
:1002E00000B92868002412E00A4602E09E4203D0CA
:1002F000521C1378002BF9D1DAB2224305D02BB16E
:1003000024B1002100F8011B04E00446401C0678DB
:10031000002EE9D12860204670BD00007007002043
:1003200070B506460FF026FE046805460A22002135
:10033000304600F044FB2C6070BDF0B480EA01024E
:10034000D40F4200B2EB410F02D2024608461146DA
:100350004A0042D0C30DDDB2C1F3C752AD1A202D01
:1003600035DAC1F3160141F4000204B15242C5F17D
:10037000200602FA06F12A411044B3EBD05F23D0E5
:10038000C4B1012DA0EBC35009DCF0BC4FF000421A
:1003900002EAC352DBB200F5000000F051BB40009E
:1003A00000F1807000EBC350A0F1807040EAD17082
:1003B000490009E0490841EAC071A0EBC35000F5CB
:1003C0000000400800EBC350F0BC00F030BB6142BD
:1003D000012202EB4101001BF6E7F0BC704781F0FF
:1003E0000041AAE780F00040A7E780EA010210B5CB
:1003F00002F00043400022D04A001FD0010E01EB62
:100400001261C0F35600C2F3560240F4000042F4F9
:100410000002A0FB022000047F39140400D0401C1D
:1004200050EA124001D44000491EC2B20C0604EB4F
:10043000D010401C4008802A02D003E0002010BDEC
:1004400020F00100002900DA0020184310BD30B46C
:1004500080EA010202F0004530F0004221F0004045
:1004600013D090B1C30DD40DC2F31601C0F3160022
:10047000E41A41F4000140F400027D34914201D3BA
:10048000641C00E04900002C02DA30BC00207047F8
:100490004FF400000023914201D3891A034340081E
:1004A0004FEA4101F7D151B1914202D14FF00041E1
:1004B00005E002D24FF0010101E06FF0010103EB12
:1004C000C450284430BC00F0B2BA2DE9FE4F80463B
:1004D00081EA0300C00F0C46009021F0004123F098
:1004E0000045B8EB0200A94105D24046214690469E
:1004F0001C460B46024623F00040104347D0270D10
:10050000C7F30A00C3F30A510290401A0190402831
:100510006BDAC3F3130040F4801B0098924620B1BD
:100520000023D2EB030A63EB0B0B01985946C0F191
:100530004002504600F012FA06460D465046594613
:10054000019A00F02AFA10EB08006141002487EAC2
:10055000115284EAE7731A4340D0009A62B3019AB9
:10056000012A4FEA075215DC001B61EB02014FF034
:10057000004202EA0752CDE90042001C41F5801119
:1005800032462B4600F099FA03B0BDE8F08F4046A2
:100590002146F9E7001B61EB0201001C41F58013C5
:1005A00000185B412018A2F5001747EB030140EA51
:1005B000D570B6196D4111E06D084FEA360645EA6F
:1005C000C0754FEA0752001B61EB0201001C41F5A8
:1005D000801149084FEA30000019514132462B463C
:1005E00003B0BDE8F04F00F059BA00980122400076
:1005F0000023D0EB020263EBE073009821464FEA40
:10060000E074B8EB000061EB0401E9E783F000431C
:100610005BE781F0004158E72DE9FE4F81EA0304D2
:1006200004F0004421F0004100944FF0000B23F04F
:10063000004350EA01045ED052EA03045BD0C3F3E6
:100640000A54C1F30A552C44A4F2F3340194A0FBDC
:100650000254C1F3130141F48011C3F3130343F4B3
:10066000801301FB024400FB034E840A970A44EA0C
:10067000815447EA8357A4FB076802958D0A05FB5E
:1006800007854FEA932C04FB0C542705029D4FEA83
:10069000065847EA1637B5EB08056EEB070C870ED0
:1006A000920E47EA811742EA8312A7FB0201B6EBDA
:1006B0000B0164EB00042B0D43EA0C335E1844EB92
:1006C0001C50DA465146E7FB0201C5F313044FEA1A
:1006D0000B3343EA14534FEA0432019C43EA060306
:1006E000A4F10C040294009CCDE900B400F0E5F9FB
:1006F00003B0BDE8F08F00200146F9E72DE9F04D89
:1007000081EA030404F0004B21F0004514464FF049
:10071000000A23F0004150EA050220D054EA010209
:100720001DD0C5F30A570246C5F31303C1F31300E6
:10073000C1F30A5640F4801543F48013A7EB060872
:10074000101BD64608F2FD3873EB050002D308F102
:10075000010801E092185B41B8F1000F03DA0020B4
:100760000146BDE8F08D00204FF480110646844616
:100770000EE0171B73EB050705D3121B63EB050394
:1007800006434CEA010C49084FEA300092185B41DD
:1007900050EA0107EDD152EA030012D082EA0400C8
:1007A00083EA0501084305D0101BAB4106D20122A4
:1007B000002306E000224FF0004302E06FF0010248
:1007C00053101AEB06004CEB085110EB0A0041EBFA
:1007D0000B01BDE8F04D00F061B9962300221146EF
:1007E00000F02EB930B4044696230800214604D008
:1007F000B62330BC002200F023B920460021F8E7E0
:100800000EB540F2334102910021CDE900110A46B4
:100810000B4600F052F903B000BD20F00040C10DBE
:10082000C0F3160040F400007F2901DA0020704771
:10083000962903DCC1F19601C8407047963988407B
:100840007047C1F30A5210B5C1F3130140F2FF33F0
:1008500041F480119A4201DA002010BD40F2334386
:100860009A42A2F2334203DC524200F086F810BDF5
:10087000904010BD00F0004230F000400AD0C10DA1
:1008800001F56071C0F3160042EA0151C208400749
:1008900011437047002001467047000030B5041E28
:1008A00071F1000404DB4FF00044404264EB0101AD
:1008B000141E73F1000405DB1C464FF00043524246
:1008C00063EB04038B4208BF824230BD30B5041E87
:1008D00071F1000404DB4FF00044404264EB01017D
:1008E000141E73F1000405DB1C464FF00043524216
:1008F00063EB0403994208BF904230BD01F000430E
:1009000030B421F0004150EA010206D00A0DA2F5F0
:100910006072C1F31301002A02DC30BC0020704772
:10092000440F44EAC104C100E01830BC00EBC250DF
:1009300000F07DB8002801DBC0F10040002901DB98
:10094000C1F1004181427047002801DBC0F1004045
:10095000002901DBC1F1004188427047202A04DBF5
:10096000203A00FA02F1002070479140C2F12003C2
:1009700020FA03F3194390407047202A04DB203A01
:1009800021FA02F00021704721FA02F3D040C2F1AF
:1009900020029140084319467047202A06DBCB17F6
:1009A000203A41FA02F043EAE07306E041FA02F32A
:1009B000D040C2F1200291400843194670472DE90A
:1009C000F04791460F4680460446002614F8015B26
:1009D0002DB100F0D3F80068405DC007F6D12B2D93
:1009E00002D02D2D18D0641E4A463946204600F00C
:1009F000C9F827B13968A14201D1C7F80080710553
:100A00004FF002040BD54042002803DD0FF0B2FA8C
:100A10000460A007BDE8F08746F48066E4E700289C
:100A2000F8DA0FF0A7FA04606FF00040F2E700294F
:100A3000A8BF7047401C490008BF20F00100704764
:100A400010B4B0FA80FC00FA0CF050EA010404BFC4
:100A500010BC704749B1CCF1200421FA04F411FA1A
:100A60000CF118BF012121430843A3EB0C01CB1D5E
:100A70004FEA00614FEA102042BF002010BC7047CF
:100A800000EBC35010440029A4BF10BC7047401CA9
:100A9000490008BF20F0010010BC704710B5141EBB
:100AA00073F1000408DA401C41F1000192185B4127
:100AB0001A4301D120F0010010BD2DE9F04D9246FE
:100AC0009B4611B1B1FA81F202E0B0FA80F2203215
:100AD0009046FFF743FF04460F4640EA0A0041EA0A
:100AE0000B0153465A46084313D0114653EA0100FE
:100AF00019D0C8F140025046FFF73FFF05460E46A9
:100B0000504659464246FFF729FF084305D00120C9
:100B100004E020463946BDE8F08D0020054346EA52
:100B2000E0762C4337430A986305E40AA0EB0800FB
:100B30000022FD0A44EA47540A3002D5002001464B
:100B4000E9E7010510196941DDE908450019694126
:100B5000BDE8F04DA2E70000064C074D06E0E06856
:100B600040F0010394E8070098471034AC42F6D3F4
:100B7000FFF702FB84470108A447010800487047BB
:100B8000B04401082DE9F05F824600780027154641
:100B90008B460AF10104B946302801D09DB113E01B
:100BA00014F8010B0127782803D0582801D045B14B
:100BB0000AE00DB1102D07D10027102514F8010B04
:100BC00002E0082500E00A250026B0460EE005FBFD
:100BD000080005FB06F1012701EB10461FFA80F81B
:100BE000B6F5803F00D3B94614F8010B294600F052
:100BF00018F80028EBDABBF1000F05D00FB1641E26
:100C000000E05446CBF80040B9F1000F06D00FF0D9
:100C1000B1F902210160C81EBDE8F09F48EA064014
:100C2000FAE73A2800D2303820F02002412A01D3D6
:100C3000A2F13700884201D34FF0FF30704770B502
:100C40008C1810F8015B15F0070301D110F8013B77
:100C50002A1106D110F8012B03E010F8016B01F8FE
:100C6000016B5B1EF9D12B0705D40023521E0DD456
:100C700001F8013BFAE710F8013BCB1A921C03E0A4
:100C800013F8015B01F8015B521EF9D5A142D8D3DC
:100C9000002070BD1D484FF0FF010170002080F35F
:100CA00009881B48016881F308881A484FF0805171
:100CB000016062B6FEE717484FF08051016070474F
:100CC00014484FF080510160704772B6EFF309800D
:100CD00028B1203880E8F00F0F490968086000B596
:100CE0000E4880475DF804EB0D480E490A78027003
:100CF00009480D490A680260106890E8F00F20303A
:100D000080F309884EF0F40E62B6704722ED00E0E1
:100D1000A400002004ED00E06C0100201D9A0008F2
:100D2000EA000020EB0000207001002021B1826861
:100D300042F00102826003E0826822F001028260D8
:100D4000704721B1826842F48072826003E0826859
:100D500022F4807282607047014600208A6802F0A7
:100D600004020AB1012000E0002070470146002083
:100D70008A6802F008020AB1012000E000207047F2
:100D800030B502460020002350680F4C20400D79FA
:100D90000C6844EA05242043506090680B4C2040C6
:100DA000D1E902542C434D7944EA45042043906034
:100DB000D06A20F470000C7C641EE4B2234340EA45
:100DC0000350D06230BD0000FFFEF0FFFDF7F1FDE3
:100DD000F0B504460D4600200021092D11DDE06824
:100DE000A5F10A0606EB4607072606FA07F188432F
:100DF000A5F10A0606EB460603FA06F10843E06091
:100E00000CE0206905EB4507072606FA07F1884341
:100E100005EB450603FA06F108432061072A0FDABD
:100E2000606B561E06EB86071F2606FA07F18843FD
:100E3000561E06EB860605FA06F10843606322E0BB
:100E40000D2A0FDA206BD61F06EB86071F2606FA3F
:100E500007F18843D61F06EB860605FA06F108431C
:100E6000206310E0E06AA2F10D0606EB86071F265C
:100E700006FA07F18843A2F10D0606EB860605FA8D
:100E800006F10843E062F0BD816841F0080181602D
:100E9000704721B1826842F4A002826003E0826858
:100EA00022F4A00282607047816841F004018160F1
:100EB000704700210160017141718160C1600121B1
:100EC000017470472DE9F04790B007468946904677
:100ED0001E4614210BA8FFF7CDF9142106A8FFF731
:100EE000C9F97C218448FFF7C5F98448007E0128B0
:100EF00004D1834800688049086108E08148D0F83F
:100F00000A007D4908617F48D0F80E0088677B4859
:100F1000007E012805D1022177486C3002F0C2FA28
:100F200019E079480078012805D1032172486C3016
:100F300002F0B8FA0FE0754890F817020B2805D1B7
:100F400003216D486C3002F0ADFA04E002216A48DA
:100F50006C3002F0A7FA6948007E01280FD100200A
:100F600000F070F905461DB9002010B0BDE8F0870B
:100F7000052205F10B0160481C300DF033FB63487E
:100F8000D0F845005C49486139465B48303002F092
:100F900031FB5A48007E012819D100200EF040FF95
:100FA000012828D1574890F836000106554890F896
:100FB000370041EA0041534890F8380041EA0020E8
:100FC000504991F8391008434B49086013E04D48E7
:100FD00090F8360001064B4890F8370041EA00418E
:100FE000484890F8380041EA0020464991F8391005
:100FF00008434149086049463F48623002F052FACE
:1010000041463D48001D02F04DFA4048D0F8130219
:10101000394988613D4890F8491090F84A2090F885
:101020004B3090F84D00CDE90232049101903748E1
:1010300090F84E000090354890F84F00A0F16403FE
:1010400033A214210BA80EF07BFF0446601C28B9C4
:10105000214637A00EF064FF002086E72B4890F869
:10106000501090F8512090F8523090F85400CDE98B
:10107000023204910190254890F8550000902348D1
:1010800090F85600A0F1640321A2142106A80EF0E6
:1010900057FF0446601C28B9214625A00EF040FFEA
:1010A000002062E714220BA913483A30FFF7C9F871
:1010B000142206A910484E30FFF7C3F820210E482D
:1010C00080F8611080F84D104FF47A70B6FBF0F1A3
:1010D00000FB116010B94FF47A7005E04FF47A709C
:1010E000B6FBF0F100FB11608246034A02210BF0CF
:1010F00015FF012039E700009867002030680020C4
:10110000680300203054002070540020C4390020AF
:101110003230253032642D253032642D2530326452
:101120002D253032642D253032642D253032640077
:10113000736E7072696E7466206572726F722C20A5
:10114000746865206C656E2069732025640000005A
:1011500010B500200A498880C880088148817C2118
:1011600007480C30FFF786F87C2105488830FFF7E8
:1011700081F87C210348FFF77DF8012010BD0000B5
:10118000A4640020A86500202DE9FE4F04460E4609
:1011900003F01EFB074600200290019014B1062EBA
:1011A00000DB17B90020BDE8FE8FA57894F8038016
:1011B0006078217840EA012945F6A520814534D19F
:1011C000E81CB04201D00020EDE7B8F1830F2CD12C
:1011D0006079217940EA012AA07940064FEA106B34
:1011E000E01D0090BAF5805F19D1A81C215C681C35
:1011F000205C41EA00200190A81C205C00F07F00E8
:10120000029039799DF8080061F3DF1000F58050F5
:101210000199884208D102A802F0BEF804E05A46BB
:101220005046009902F0C4F800BF0120BBE700005F
:1012300001460A2901DD002070470148405CFBE7B8
:101240001F54002010B50446204600F017F810BDCA
:101250000146012901DB0020704701EB4100C0EB92
:10126000C110024A02EB4000401CF5E7556800201F
:101270000148007870470000AC03002010B5044618
:101280000CB1002010BD102202490348FEF7D9FF1F
:101290000148F7E7CD50002012530020014609B164
:1012A0000020704701480078FBE700007003002031
:1012B00001460A2901DD002070470148405CFBE738
:1012C0001D5400200146012901DB00207047C1EBBD
:1012D000C100024A12F82000F8E70000DC440020B8
:1012E00001484079704700001C54002001480078F4
:1012F000704700001C54002001460648007E8842CA
:1013000001DC0020704765204843034A02EB80005F
:10131000F8E70000C60200203446002010B53D4822
:101320004089401C3B4948814FF6FF7008810846C0
:101330000088888008468088401EC88008468088CB
:101340004FF47A7190FBF1F201FB120008B90846E4
:1013500007E0304880884FF47A7190FBF1F201FB8E
:10136000120084B22B4A0C32012120460BF0D6FD2C
:101370007C2228490C3101F1F800FEF762FF254874
:10138000C088002819DD2348C0884FF47A7190FB8B
:10139000F1F201FB120008B9084607E01D48C088B9
:1013A0004FF47A7190FBF1F201FB120084B2194AFA
:1013B0008832012120460BF0B1FD1648808820B903
:1013C0000021154802F01AFB22E01248808801280B
:1013D0000FD112490F480C3002F006FA0D4841892E
:1013E0004FF4FC500AF022FC00210C4802F006FBEE
:1013F0000EE00B4907480C3002F0F6F90548418928
:101400004FF4F8500AF012FC0021054802F0F6FAF9
:10141000012010BDA4640020B8060020A40600200E
:101420009006002070B5044640E038484089401CD2
:10143000364948810846808808810846C0888880E7
:101440000846C088401EC8807C220C3101F1F8009B
:10145000FEF7F7FE7C222D498831A1F17C00FEF7D2
:10146000F0FE2A48C08800281FDD28484089B0F5D2
:101470007A7F1ADA2548C0884FF47A7190FBF1F22E
:1014800001FB120008B9084607E02048C0884FF465
:101490007A7190FBF1F201FB120085B21B4A88328F
:1014A000012128460BF03AFD00E004E0201EA4F1E3
:1014B0000101CCB2B9D100BF1448C08820B1134893
:1014C0004089B0F57A7F0FDB114910480C3002F0EB
:1014D0008BF90E4841894FF4FC500AF0A7FB00211C
:1014E0000B4802F08BFA0EE00A4908480C3002F073
:1014F0007BF9064841894FF4F8500AF097FB002128
:10150000044802F07BFA012070BD0000A4640020B2
:10151000A40600209006002070B5044652E045481D
:101520004089401E4349488108468088C880084653
:10153000008988807C220C3101F17C00FEF781FE5D
:101540007C223D49A1F1F800FEF77BFE3948008975
:10155000002823DD374800893649096888421DD8AC
:1015600034480089401C33490881084600894FF4FB
:101570007A7190FBF1F201FB120008B9084607E00E
:101580002C4800894FF47A7190FBF1F201FB1200B4
:1015900085B2294A012128460BF0C0FC2548008964
:1015A00028B1244800892349096888420AD9234878
:1015B0000078401C2149087000201E490881012044
:1015C000488104E0201EA4F10101CCB2A7D100BFE4
:1015D0001A48007802280DD11648008950B9002019
:1015E000174988700021174802F008FA00201349B3
:1015F00008701CE00F4880884FF6FF71884207D1C1
:1016000000200F49887000210E4802F0F7F90EE023
:101610000D4908480C3002F0E7F8064841894FF4BC
:10162000F8500AF003FB0021074802F0E7F9012017
:1016300070BD0000A4640020A865002028040020DC
:1016400024040020740400209006002002460A2A88
:1016500001DD002070470248815400BFFAE7000016
:101660001F54002010B50020FFF7F2FD044694F847
:10167000EB0018B901200449087002E0002002497B
:101680000870012010BD00007003002002460329ED
:1016900000DA0AB100207047014801700120FAE722
:1016A0007003002001460B48007E884201DC0020C8
:1016B000704721B90020084A1070084A10700022B3
:1016C0000548401C4254801C42540A3042540120B8
:1016D000EEE70000C60200201C540020AC030020EE
:1016E00010B5012800DB10BDC0EBC002054B03F8AC
:1016F00022100022C0EBC003024C04EB83031A76D5
:1017000000BFF0E7DC44002010B5FFF7ABFF10BDD1
:101710000146024841710120704700001C5400201E
:101720000246022901DA012A01DB00207047024843
:1017300081540120FAE70000C402002010B51348CC
:1017400008F00CFA12490860084600681149096857
:10175000401A40F6B83188420FD20D4800680D4952
:1017600008600D480078401CC0B20B49087003287F
:101770000ADB00200870012010BD054800680549FB
:1017800008600020044908700020F5E700000020F0
:10179000180400201C0400201404002070B5054625
:1017A0000C4616460CB9002070BD03210648817610
:1017B0006178207841EA00210348C1610021034893
:1017C00002F01CF90120EFE7C4390020600400207A
:1017D00038B504466D4A08214FF4FA6008F062F902
:1017E0006B48007E012800D038BD6A4669A16C486C
:1017F00006F0A6FFBDF8000000B1F5E74FF48071D8
:10180000684802F0DAFF614A0821642008F04AF9CA
:101810004FF40061634802F0CEFF4FF480516148FD
:1018200002F0C9FF594A0821FA2008F03BF94FF4A9
:1018300080715C4802F0C1FF544A0821642008F01E
:1018400031F94FF40061574802F0B5FF4FF4805171
:10185000544802F0B0FF4D4A0821FA2008F022F95E
:1018600092E0514890F85B0098B15048007818B168
:101870004E48007806280CD1444A08214FF47A706B
:1018800008F010F90220FFF743FF0020464981F8D5
:101890005B00FFF725FD90BB01F03EFC3B4808F0E4
:1018A0005DF9434908600020FFF7C2FC012827D0FA
:1018B0003E480078042823D03D4800683D49096827
:1018C00088420BD33A4800683A490968401A3A49B5
:1018D000884201D301200EE000200CE0354800686A
:1018E000C0F1FF303249096808443349884201D3C6
:1018F000012000E0002048B30CF058FF3EE004E077
:101900002B4800682B49086038E00020FFF7D0FC26
:10191000012833D1294805F035FCC0B10020284901
:10192000087004F063FE0020FFF7F2FE0CF0BCFA32
:10193000164A08214FF47A7008F0B4F8134A0821C7
:101940004FF4FA6008F0AEF805F032F916E01C48E2
:101950000078401CC0B21A49087003280EDD002030
:1019600008700CF023FF0020FFF7D2FE0CF09CFA69
:10197000064A08214FF47A7008F094F8034A0821C7
:101980004FF47A7008F08EF86BE70000000000203A
:101990003068002073656E646D75746578000000B2
:1019A000F844002000080140D8450020C439002038
:1019B000180300201C030020C02709002445002034
:1019C0002103002070B588B006460025182101A823
:1019D000FEF750FC9B4A08214FF4FA6008F062F8C9
:1019E0000DF068F907AB142297A19A4807F0CEF8DA
:1019F000BDF81C0028B194A197A00EF091FA08B090
:101A000070BD9A48007E012800D0F8E700240DE060
:101A10008C4808F0A3F8964941F82400084650F88D
:101A20002400944941F82400601C84B29248007E4E
:101A3000A042EDDC04E1002407E0824808F08EF8C3
:101A40008B4941F82400601C84B28B48007EA04280
:101A5000F3DC8948007E00B900BF55208749087033
:101A60004FF47A704FF4C373854A01A90090794806
:101A700010F022FE00287ED101980A287BD17E48F2
:101A8000007E012822D10020FFF712FC012818D186
:101A9000FFF726FC012804D1794805990BF0D6FF01
:101AA00009E0059881B276480EF0C4F918B1704883
:101AB0000068704908604FF4C3717148FEF7DAFBA3
:101AC00059E06F4805990BF0C1FF54E06C48059947
:101AD0000BF0BCFF00244AE065206043694901EB3C
:101AE000800090F8900101283FD1002165206043DB
:101AF000644A02EB800080F8901104BB62480068E1
:101B0000401C61490860652262435E4B03EB820220
:101B1000B2F88E116522624303EB820202F10800E3
:101B20000EF088F9E8B1524850F82400514941F8C4
:101B3000240056480068401C5449086011E06520A4
:101B40006043504901EB8000007A682809D10121E7
:101B50000846FFF77BFD464850F82400454941F808
:101B6000240000204A4941F82400601C84B2424805
:101B7000007EA042B0DC00245EE0E0B2FFF798FBFC
:101B8000012851D13C48007E012812DD404850F820
:101B90002400401C3E4941F824000D2809D30020B0
:101BA00041F824002CB900231A4619461E2010F0D3
:101BB000C3FE2F4850F824002E4951F824108842C3
:101BC0000ED32B4850F824002A4951F82410401A0B
:101BD0004EF66021884201D3012011E000200FE081
:101BE000234850F82400234951F82410C1F1FF3153
:101BF00008444EF66021884201D3012000E0002015
:101C0000C0B1FFF76DFBA8B9194850F82400194975
:101C100041F82400E0B2FFF745FD5CB91D480068BB
:101C2000401C1C49086005E0114850F82400114987
:101C300041F82400601C84B20F48007EA0429CDC66
:101C4000F9E600000000002034472073656E642030
:101C50006D7100005C4900204F53514372656174FF
:101C600065202573204661696C0000003068002003
:101C70004003002038030020C60200205803002043
:101C80008C49002034460020280300202403002033
:101C9000300300202C03002070B588B006461821C0
:101CA00001A8FEF7E7FA0020FFF7D2FA0546002464
:101CB000B14A08214FF4FA6007F0F4FEAF48007E05
:101CC000012801D008B070BD07AB1422ACA1AF4809
:101CD00006F05CFFBDF81C0020B1A9A1ACA00EF07D
:101CE0001FF9EFE747E1FFF7FBFA022803D0FFF700
:101CF000F7FA012806D1A04A08214FF47A7007F0BC
:101D0000D1FE38E14FF47A700A23A64A01A9009067
:101D10009E4810F0D1FC00286FD1039820286DD286
:101D2000DFE800F010989826986052586D70767B26
:101D3000808598868736986568577398989898989C
:101D400098988890FFF7D2FA012810D10020FFF769
:101D5000AFFA01280BD1049848B90499C8B20EF023
:101D6000A1F89148007E012801DD0EF035F872E0FF
:101D7000FFF7BCFA01280AD10020FFF799FA0128E1
:101D800005D1049818B90499C8B20EF092F862E02F
:101D9000049890B90499C8B201210DF0D7FC0499B8
:101DA000C8B20121FFF79CFC0499C8B20EF04AF8B2
:101DB0000499C8B200210EF086F87B48007E012805
:101DC00001DD0DF0F1FC46E00499C8B20EF04FF8C9
:101DD00041E040E0049820B90122294600200AF0A1
:101DE0009DFE38E00499C8B20EF04FF833E00EF0D3
:101DF0004AF830E00EF050F82DE02DE02AE004F033
:101E000029FB28E00EF04AF825E00EF049F822E020
:101E10000499C8B20EF028F81DE00499C8B20EF07B
:101E20001CF818E00499C8B20EF04AF813E012E06A
:101E300011E010E05C48007E012802DD00200CF07B
:101E400047F808E05848007E012802DD01200CF028
:101E50003FF800E000BF00BFFFF742FA012806D1BB
:101E6000454A08214FF47A7007F01CFE83E00024F5
:101E700010E0FFF73BFA01280AD12046FFF718FAD5
:101E8000012805D114B90DF0F9FF01E00DF0C0FEF5
:101E9000601CC4B24448007EA042EADC4248007E96
:101EA000012827DD414800684149096888420CD370
:101EB0003E4800683E490968401A42F21071884263
:101EC00001D301200FE000200DE039480068C0F187
:101ED000FF3036490968084442F21071884201D344
:101EE000012000E0002028B1304800683049086037
:101EF0000CF032F800243BE02046FFF7E3F901281C
:101F000014D1FFF7F3F9012824D10020FFF7D0F90D
:101F100001281FD10020FFF78BF901281AD1CCB975
:101F20000022294620460AF0F9FD13E0124807F086
:101F300015FEC4EBC4011F4A02EB81014860C4EBEB
:101F4000C400114601EB80004068C4EBC40102EB01
:101F500081018860FFF7CAF9012807D12046FFF701
:101F6000A7F9012802D12046FFF762F9601CC4B22C
:101F7000012CC1DB00BFB6E6000000203068002065
:101F800034472073656E64206D7100006C4D002035
:101F90004F53514372656174652025732046616912
:101FA0006C0000009C4D0020C60200206003002051
:101FB00064030020DC44002088B0002006900790D5
:101FC00000BF00BF18216846FEF754F909F028FF4A
:101FD0000AF0ECF8412009F03DFF664A0821642030
:101FE00007F060FDC5E0FFF77BF9012806D1614AE3
:101FF00008214FF47A7007F055FDBAE002F0E8FBD3
:1020000004465C4A0821642007F04CFD11F06CF88E
:102010005948007A01284CD15848844202D0584887
:10202000844246D15748007E01282CD10EF060FA38
:1020300000283ED0544855490A6802604A68426008
:10204000098901810020FFF7F3F8012806D1002358
:102050001A4619460B2010F06FFC00E000BF40212B
:102060004B4802F0AAFB434A0821642007F01AFDFE
:102070004021474802F09FFB3E4A082140F6B83015
:1020800007F010FD15E011F0E1F890B14021404853
:1020900002F093FB374A0821642007F003FD40213A
:1020A0003B4802F088FB334A082140F6B83007F07D
:1020B000F9FC3148007A02285AD13248007E0128C2
:1020C0002FD100200DF0ACFE012851D10EF010FAF6
:1020D00000284DD00A222D492B48FEF7EFF830B9E1
:1020E000002304221946022010F0F0FE05E0002330
:1020F0001A462849184610F08DFA4021244802F06B
:102100005CFB1C4A0821642007F0CCFC40212048DD
:1021100002F051FB174A082140F6B83007F0C2FC24
:1021200026E01D48D0F813026421B0FBF1F52846E3
:1021300011F076FBE0B11048007898B940211448BE
:1021400002F03BFB0B4A0821642007F0ABFC402166
:102150000F4802F030FB074A082140F6B83007F07C
:10216000A1FC05E000231A460C49184610F052FA6B
:1021700000BF38E7000000207054002060040020F9
:10218000A005002030680020665400207C54002008
:10219000001C014000050020C43900201405002067
:1021A00008B50FF0E5F86A460821642007F07AFCCC
:1021B0000FF071F90EF028F909F030FB09F0B2FACE
:1021C00023E0FFF78DF8012803D0FFF789F80228F4
:1021D00006D10E4A08214FF47A7007F063FC14E030
:1021E00010F028F90FF032F90EF0FCFA02F038FB8B
:1021F0000FF0B4F806480EF091FF00F037FF034AE5
:102200000821012007F04EFC00BFDAE700000020A3
:10221000C439002000B58BB00AA803210022059222
:10222000CDE906210890142082210D224B4BCDE9E7
:102230000132CDE903101E200023494A49A1009034
:102240004B4807F03BF80AA8032100220592CDE98C
:1022500006210890142064210A22464BCDE9013260
:10226000CDE9031006200023434A44A100904648CC
:1022700007F024F80AA8032100220592CDE90621DF
:1022800008901420E6211722404BCDE90132CDE918
:102290000310072000233E4A3EA10090404807F06B
:1022A0000DF80AA8032100220592CDE90621089025
:1022B0001420C8213B4BCDE90130CDE903100820A3
:1022C0001346394A39A100903B4806F0F7FF0AA8A7
:1022D000032100220592CDE9062108901420DC217B
:1022E0001622364BCDE90132CDE90310032000233D
:1022F000334A34A10090364806F0E0FF0AA80321D3
:1023000000220592CDE90621089014200101202227
:10231000304BCDE90132CDE903100A2000232E4ACB
:102320002EA10090304806F0C9FF0AA80321002220
:102330000592CDE9062108901420462107222B4B57
:10234000CDE90132CDE903100B200023284A29A151
:1023500000902B4806F0B2FF0BB000BD340A0020FD
:10236000B91F0008417070204361726400000000D2
:102370007C090020F40C0020A1210008417070208D
:1023800043686172676500003C0C00203C0F002030
:1023900005240008417070204477696E0000000039
:1023A000840E00208C130020D1170008417070208B
:1023B00034474D61696E0000D4120020641700207C
:1023C000C5190008417070203447526563760000DB
:1023D000AC1600208C1B0020991C00084170702056
:1023E000344753656E640000D41A00204421002055
:1023F000E929000841707020646C7436343500009F
:102400008C20002030B589B005460024182103A88F
:10241000FDF730FFC24A08214FF47A7007F042FB03
:102420000CF0B8FC0FF066FD0AF0EEFBBD48007E34
:10243000012801D10AF0E8FB01AB1422BAA1BE4881
:1024400006F0A4FBBDF8040028B1B7A1BBA00DF0B5
:1024500067FD09B030BDB24A08214FF47A7007F029
:1024600021FB10F089FB5AE1FEF73AFF012803D067
:10247000FEF736FF02280AD12146B54801F0BEFA20
:10248000A74A08214FF47A7007F00CFB47E14FF49C
:10249000FA703223AF4A03A90090A74810F00CF954
:1024A00000287CD10398012846D0042807D00628AC
:1024B00076D10798C1B2A748FEF766FE0FE104B9CE
:1024C0000DE1A5490698884217D0A449069888428C
:1024D00013D0A349069888420FD0A2490698884293
:1024E0000BD0A1490698884207D0A0490698884297
:1024F00003D09F490698884216D1974884421AD043
:102500009648844217D09648844214D09548844215
:1025100011D0954884420ED00220964988702146F9
:10252000069801F06BFA06E0002092498870214677
:10253000069801F063FAD2E0059820B1012830D066
:10254000022878D178E08C48007860B17548007E28
:10255000012804D1894806F0E3FC0DF0C3FC87484C
:1025600006F018FD1AE06F48007E012809D101210C
:1025700000200DF0EBF800231A461946184610F01B
:10258000DBF94FF4F2737E4A002109200FF08AFC38
:1025900040237C4A00210A200FF084FC9CE09FE04D
:1025A0009CE07548007830B1002073490870012123
:1025B000FFF796F83EE072481C3073490A680260E3
:1025C0008A888280897981715038D0F85710C0F894
:1025D0005B100698C1B26A48343880F81712514827
:1025E000007E012812D10BF0EDFF00231A46194698
:1025F000112010F0A1F965490B686149343991F84F
:10260000170211220021FEF75DFC13E05548A0429D
:1026100006D00220574988702146514801F0EEF952
:102620005A490B685649343991F817021122012191
:10263000FEF748FC50E04EE051481C3052490A6811
:1026400002608A88828089798171002011F0CCF93A
:102650004B493439C1F85B000698C1B24848343858
:1026600080F817122F48007E012812D10BF0AAFF24
:1026700000231A461946112010F05EF943490B68F1
:102680003F49343991F8170211220021FEF71AFC54
:1026900009E03E490B683A49343991F81702112292
:1026A0000121FEF70FFC10F0CBFC0020324908702E
:1026B0004FF4F2713648FDF7DDFD4FF4F273344A02
:1026C000002109200FF0EEFB40232E4A00210A20B2
:1026D0000FF0E8FB00E000BF00BF00E000BF00BF5C
:1026E00002F076F804461CB1E06808B1E068804763
:1026F00020480088012804D10220029002A800F09E
:102700004BFE1F493439087810F0CCFA0EF066FF02
:102710000FF03AF910F09EFA0FF066FE00BFA3E644
:1027200000000020306800206477696E20746173B7
:102730006B206D7100000000D86B00204F53514397
:102740007265617465202573204661696C00000024
:102750002C0600206C6C0020EC04002000050020FA
:1027600014050020280500203C050020A0050020BD
:102770001C0700202404002040000020020000204C
:10278000F83900203054002024000020A4640020E8
:10279000F169002008B5002400F0C9FB00F0F9FB46
:1027A00000F0BDFB05466E480068B5FBF0F630460C
:1027B00007F01AFA684606F0FFFC0BF0BBFE01F0CA
:1027C000A5FC0FF0E1FA01206649087066A00DF043
:1027D000A7FB90200EF064FE04F050FA43F63F0190
:1027E00044F61F600CF05CF803F07EFF8F21092097
:1027F0000CF086F8FFF70EFD6B4800686B49086027
:1028000008460068000E096801F47F0140EA1120C3
:102810006649098801F47F4140EA0120634909784B
:1028200040EA0160614908605F48001D0068604936
:10283000086008460068000E096801F47F0140EA5C
:1028400011205B49098801F47F4140EA0120584981
:10285000097840EA0160564908605348083000682A
:102860005449086008460068000E096801F47F01B9
:1028700040EA11204F49098801F47F4140EA0120D4
:102880004C49097840EA01604A49086008460368F3
:10289000474802684548016847A00DF041FB4C4895
:1028A0004249096801604249096841604149096833
:1028B000816000BF06E04648005D10B9AA20444987
:1028C0000855641C0C2CF6D349E003F005FF414881
:1028D0000068401C3F4908606A460821642007F0F0
:1028E000E1F801F03FFB3C4880783C4908713A48E8
:1028F000C07864308871384840784871384800782A
:10290000887037484078487035488078087008F0FB
:102910003DFF34480078112804D108F037FF00202B
:10292000304908702F480078122805D1042011F092
:10293000EBF900202B4908702A480078132805D1AC
:10294000052011F0E1F9002026490870254800789B
:10295000992804D110F034FB002022490870B4E714
:10296000303E01084000002053797374656D205299
:1029700065736574202053797374656D2052657397
:102980006574202053797374656D20526573657486
:102990002E2E2E2E2E2E2E2E2E2E2E2E2E2E2E2E57
:1029A0002E2E2E2E2E0D0A00E8F7FF1F34000020D9
:1029B000380000203C0000204D43552049643A2552
:1029C000303878202530387820253038780A0000D3
:1029D0005C22002078070020540200202400002000
:1029E000500200204100002030B589B00546182172
:1029F00003A8FDF73FFC02AB1522FBA1FE4806F041
:102A0000C5F8BDF8080028B1F7A1FCA00DF088FAC0
:102A100009B030BD0CF05EFAFD4A0821642007F0D1
:102A200041F84DE2FB48407E00287DD1F84807F090
:102A300095F8F949086008460068F849096888422D
:102A40000BD3F5480068F5490968401AB0F57A7F5C
:102A500001D301200EE000200CE0F0480068C0F136
:102A6000FF30ED4909680844B0F57A7F01D30120B1
:102A700000E0002000285BD0E948007870B9E9A1A7
:102A800003C9CDE90001E9480099C0F80A10BDF872
:102A90000410C18110210CF0E7FB00BFE048007872
:102AA00001280ED1E2A103C9CDE90001DF48009958
:102AB000C0F80A10BDF80410C18110210CF0D4FB3D
:102AC00000BFD748007802280ED1DBA103C9CDE9A9
:102AD0000001D6480099C0F80A10BDF80410C18161
:102AE00010210CF0C1FB00BFCD48007803280ED1A7
:102AF000D3A103C9CDE90001CC480099C0F80A1060
:102B0000BDF80410C18110210CF0AEFB00BFC44819
:102B10000078401CC249087008460078042801DB90
:102B200000200870BC4800E0C5E10068BB490860AF
:102B30004FF4FA703223C44A03A90090AE480FF054
:102B4000BBFD00287DD12E22BF49091DBF48FDF7DE
:102B500078FB04980B28F5D1BC48807A3338C1B291
:102B6000BA48C07A3338C0B241EA0021B748007B86
:102B70003338C0B241EA0041B448407B333841EABF
:102B80000060B349086008460068B0F5C00F7DD00A
:102B9000B049084438B1B0F5803F37D0AE49084459
:102BA000002874D1F1E0A948807BC01E00F00F011D
:102BB000A648807B3338001100EB800001EB400019
:102BC000A6490861A148C07BC01E00F00F019F48C4
:102BD000C07B3338001100EB800001EB4000642122
:102BE00010FB01F09D49C8600846C06809690844A7
:102BF00000219B4A03C29A4903C9FDF7F3FD04462D
:102C00009849FDF724FC9849486053E18F48807B40
:102C1000C01E00F00F018D48807B3338001100EB9F
:102C2000800001EB40008D4908618848C07BC01ED0
:102C300000F00F018548C07B3338001100EB8000A5
:102C400000E03DE101EB4000642110FB01F083490D
:102C5000C8607E48007CC01E00F00F017B48007CED
:102C60003338001100EB800001EB400042F210719C
:102C700010FB01F07949886008468068C9680844FB
:102C80007649096908440021754A01E00CE010E129
:102C900003C2734903C9FDF7A5FD04467349FDF757
:102CA000D6FB7149086005E16848807BC01E00F0D2
:102CB0000F016648807B3338001100EB800001EB88
:102CC0004000664908616148C07BC01E00F00F01EA
:102CD0005E48C07B3338001100EB800001EB400000
:102CE000642110FB01F05D49C8605848007CC01E9B
:102CF00000F00F015548007C3338001100EB8000D4
:102D000001EB400042F2107110FB01F05349886062
:102D10004E48407CC01E00F00F014C48407C3338C8
:102D2000001100EB800001EB4000514948434B4942
:102D300048604648807CC01E00F00F014348807CFC
:102D40003338001100EB800001EB40004949484353
:102D50004249086008460068496808443F49896854
:102D600008443E49C96808443C49096908440021AF
:102D70003B4A03C23A4903C9FDF734FD04463E49C4
:102D8000FDF765FB3849C86094E03048807BC01E81
:102D900000F00F012D48807B3338001100EB8000DC
:102DA00001EB40002D4908612848C07BC01E00F09F
:102DB0000F012648C07B3338001100EB800001EB87
:102DC0004000642110FB01F02449C8601F48007CCA
:102DD000C01E00F00F011D48007C3338001100EBCD
:102DE000800001EB400049E06477696E20746173F4
:102DF0006B206D7100000000786D00204F5351432F
:102E00007265617465202573204661696C0000005D
:102E10000000002030680020480700204C070020F8
:102E200060070020333393330D1600005007002055
:102E300033343435B116000033343535B216000062
:102E400033333635B2160000A86D0020DA6D00204D
:102E50006407002000FFFEFD0001FEFFF86D00206A
:102E60006807002000002041686D002000007A44BF
:102E700040420F0000E1F50500401C4642F210718F
:102E800010FB01F00F49886008468068C968084453
:102E90000C490969084400210B4A03C20A4903C9C5
:102EA000FDF7A0FC04460949FDF7D1FA08498860FE
:102EB00000E000BF04E002AA0821642006F0F2FD51
:102EC000B0E50000F86D00206807002000401C46B7
:102ED000686D002010B50421064881760021C1618B
:102EE0000220054988700021044800F087FD012078
:102EF00010BD0000C439002024040020600400201C
:102F00000146992901DD0020704701F00F000B11E7
:102F100003EB830300EB4300C2B21046F4E700B5B5
:102F200085B0684609F0EAFB009805B000BD10B511
:102F30004FF4407005F0A4FA10BD2DE9F0410546AC
:102F40000E4600271DE04FF00008002410E035F881
:102F50001410601C35F81000814208DD621C05EB7E
:102F6000420105EB44000BF099FB4FF00108641C93
:102F7000701EC01BA042EADCB8F1000F00D103E0D4
:102F80007F1C701EB842DEDC00BFBDE8F08100BFD0
:102F9000FEE710B500F020F800F01AF810BD0000B0
:102FA00010B5002400BF00BFFDF704F9044600BFC0
:102FB00000BF1021054803F02FFF00BF00BF2046CF
:102FC000FDF7FCF800BF00BF10BD0000CC350020AD
:102FD00010B5FFF7E5FF10BD10B5002002490860ED
:102FE00000F00AF810BD00007401002001490860DB
:102FF000704700007401002010B5FFF790FF0446F1
:103000000848006840F080700649086000200649C2
:1030100048600846006840F0010008602046FFF75D
:10302000E5FF10BDFCED00E0001000E0014948683C
:1030300070470000001000E001460020302905DB49
:10304000392903DCA1F13002D0B20EE0412905DBC1
:10305000462903DCA1F13702D0B206E0612904DB86
:10306000662902DCA1F15702D0B2704710B50E48B4
:103070000078012815D10D480DF038FD012810D138
:103080000B4A0821C82006F00DFD022006490872EF
:103090000020087007488078022802D100200549E6
:1030A0008870012010BD000070540020C439002039
:1030B000000000202404002010B50020044908600E
:1030C00004230A46002105200EF0ECFE012010BD6D
:1030D000A464002070B506460C4615460CB1042DBC
:1030E00001D0002070BD20780006617840EA0140E0
:1030F000A17840EA0120E1780843064908622523C7
:103100000A46002101200EF0CDFE04F06FFC0120E4
:10311000E8E700003068002010B50020FEF7C8F88E
:1031200001280BD01E480078401CC0B21C49087012
:10313000072803DD002008700AF0F0FBFEF7D6F840
:10314000012801D004F0B8F9FEF7D0F8012801D029
:10315000002010BD00241DE02046FEF7A9F801283C
:103160000ED03CB90F48C28800F10801204603F098
:1031700087FE05E042F248620BA1204603F080FE84
:103180002046FEF795F8012802D020460AF0BAFB47
:10319000601CC4B20348007EA042DDDC0120D8E7F9
:1031A00016030020C60200203131342E35352E3171
:1031B00038362E32303600000146632901DD00200A
:1031C00070470A2091FBF0F300FB13100A2391FBD8
:1031D000F3F300EB0310C2B21046F1E721B102682D
:1031E00042F00102026004E002684FF6FE731A40EA
:1031F000026070470021016041608160C16001612F
:1032000041618161C161016241628162704710B5B3
:103210000022026847F6F0739A430C6A8B682343D6
:103220000C6923434C6923438C692343CC692343B2
:103230004C6A23438C6A23431A430260CB68436081
:103240000B6883604B68C36010BD000001684FF6D7
:10325000FE72114001600021016041608160C16027
:103260004B49884208D14A490839496841F00F0161
:10327000474A083A51608AE045491431884208D1EA
:1032800043490839496841F0F001414A083A516020
:103290007DE03F492831884208D13D4908394968D5
:1032A00041F470613A4A083A516070E038493C3163
:1032B000884208D136490839496841F47041344A96
:1032C000083A516063E032495031884208D13049B0
:1032D0000839496841F470212D4A083A516056E096
:1032E0002B496431884208D129490839496841F499
:1032F0007001274A083A516049E0254978318842EF
:1033000008D123490839496841F07061204A083AD8
:1033100051603CE01F49884206D1011F096841F015
:103320000F01021F116032E01A491431884208D19E
:103330001849091F096841F0F001164A121F11606F
:1033400025E014492831884208D11249091F09682B
:1033500041F470610F4A121F116018E00D493C31B1
:10336000884208D10B49091F096841F47041094A94
:10337000121F11600BE007495031884207D10549FF
:10338000091F096841F47021024A121F1160704739
:10339000080002400804024070B5054601F018FA22
:1033A00004460CB9A06810B12846A168884770BDD2
:1033B0002DE9F04105460E4617460DB106B117B985
:1033C0000020BDE8F081002414E00C4830F83400FF
:1033D000A8420DD1094800EBC400406840B107483D
:1033E00000EBC4003A463146436828469847E8E770
:1033F000601CC4B2102CE8D30120E2E7AC43010802
:103400007047002107E0002201E0531C9AB26E2AA7
:10341000FBDB4B1C99B28142F5DB704737B5A4B09A
:10342000044601F0D5F9054615B9002027B030BD96
:10343000782106A8FCF71EFF9DF894009DF89510D2
:103440009DF896209DF89830CDE90132CDE9031022
:103450009DF8990000909DF89A0000F26C7308A204
:10346000782106A80CF06CFD217941F2050242EAB0
:10347000C1101E2206A908F001FC0120D6E70000B9
:10348000253034642D2D253032642D2D25303264C5
:103490002D2D253032643A3A253032643A3A2530BF
:1034A000326400002DE9F04106460D46002401F08B
:1034B0008FF90746132D00DA17B90020BDE8F08117
:1034C000002417E004EB44000D4911F82000A84245
:1034D0000ED104EB44000B4603EB8000028904EBA1
:1034E000440003EB800041683046FCF7AAFE03E08D
:1034F000601CC4B2132CE5DB00BF0120DEE7000036
:103500009C4101082DE9F04106460D46002401F0DA
:103510005FF90746132D00DA17B90020BDE8F081E6
:10352000002417E004EB44000D4911F82000A842E4
:103530000ED104EB44000B4603EB8000027A04EB4F
:10354000440003EB80004168304608F097FB03E03D
:10355000601CC4B2132CE5DB00BF0120DEE70000D5
:103560009C41010837B5A4B0044601F031F9054685
:1035700015B9002027B030BD782106A8FCF77AFEE7
:103580009DF894009DF895109DF896209DF8983030
:10359000CDE90132CDE903109DF8990000909DF826
:1035A0009A0000F26C730BA2782106A80CF0C8FCFC
:1035B0001E2206A9204608F061FB4FF6C07204EAFD
:1035C0000201303188B24FF6FF710AF089FE012006
:1035D000D0E70000253034642D253032642D2530AD
:1035E000326420253032643A253032643A25303254
:1035F000640000002DE9F04106460D46002401F06C
:10360000E7F80746192D00DA17B90020BDE8F08168
:10361000002417E004EB44000D4911F82000A842F3
:103620000ED104EB44000B4603EB8000028904EB4F
:10363000440003EB800041683046FCF702FE03E0E3
:10364000601CC4B2192CE5DB00BF0120DEE70000DE
:103650008042010810B56048007E01287ED100201C
:10366000FDF726FEB0B10020FDF7E2FD90B100208D
:103670005A490870084600785949097888421BD091
:103680005648007856490870012142F2600008F05F
:10369000B9FA11E0012051490870084600785049F4
:1036A0000978884208D04D4800784D4908700021BB
:1036B00042F2600008F0A6FAFDF7DAFD60B9494869
:1036C0000078012808D1002142F2500008F09AFA4F
:1036D0000020444908707CE0FDF7CAFD18B1FDF7F1
:1036E000C7FD632812D100203C4948700846407845
:1036F0003B49497888426CD038484078384948700E
:10370000002142F2500008F07DFA62E0FDF7B0FDC2
:10371000012811D13149487008464078304949782C
:10372000884256D02D4840782D494870012142F2F8
:10373000500008F067FA4CE0FDF79AFD142814DAFF
:103740000220264948700846407825494978884231
:103750003FD0224840782249487000E02FE0022103
:1037600042F2500008F04EFA33E0FDF781FD1928CF
:1037700012DA0320194948700846407818494978F8
:10378000884226D01548407815494870032142F2F6
:10379000500008F037FA1CE0042010494870084631
:1037A00040780F494978884213D00C4840780C493A
:1037B0004870042142F2500008F024FA09E0C821C0
:1037C00042F2600008F01EFAC82142F2500008F0F0
:1037D00019FA012010BD00003068002034040020D8
:1037E000360400203804002070B504460D467C21C4
:1037F0006D48FCF73FFD207C0006218A01F47F41E3
:1038000040EA0120216901F47F0140EA1120216989
:1038100040EA1160644908600A2204F16C016248C0
:10382000001DFCF70EFD142204F11C015E480E3051
:10383000FCF707FD207D0006A18A01F47F4140EAE4
:103840000120616901F47F0140EA1120616940EAC9
:103850001160554948620A2204F13001524828306B
:10386000FCF7EFFC5049206848630846D4F8621022
:103870008163D4F86610C163B4F86A10A0F84010F0
:10388000423061680160A1684160A18901816421C1
:10389000A069B0FBF1F000066422A169B1FBF2F16E
:1038A00001F47F4140EA0120A169B1FBF2F101F48A
:1038B0007F0140EA1120A169B1FBF2F140EA1160F9
:1038C0003949C86494F878000006B4F8781001F417
:1038D0007F4140EA0120A16F01F47F0140EA1120FD
:1038E000A16F40EA116030490865142204F13A01E1
:1038F0002D485430FCF7A5FC142204F14E012A484F
:103900006830FCF79EFC297941F2010242EAC110BD
:103910002222254908F0B2F9297941F2120242EA3D
:10392000C11004222049243108F0A8F9297941F274
:10393000140242EAC1100A221B49283108F09EF9FC
:10394000297941F2190242EAC110042216493431A0
:1039500008F094F9297941F21B0242EAC1100A22C7
:103960001149383108F08AF929794FF4815242EA35
:10397000C1100E220C49423108F080F9297941F238
:10398000270242EAC11004220749503108F076F9B3
:10399000297941F2500242EAC110282202495431E9
:1039A00008F06CF9012070BD246600201CB50848A1
:1039B000016800918188ADF8041080798DF80600C7
:1039C0004FF44050DDE90012FFF7CCFD00201CBD94
:1039D000240000201CB50446074801680091818836
:1039E000ADF8041080798DF806002046DDE900125C
:1039F000FFF714FD00201CBD2400002070B5044614
:103A00000D4604B970BD05B125600C480460208ADC
:103A10000B49088009490968087908F0EDF807485A
:103A20000068C06840B105480068C068401C18B113
:103A300002490968C868804700BFE3E72004002006
:103A4000240400202DE9F04107460E46144606B135
:103A50000CB9BDE8F08100F01DF8E11CC8B203F01C
:103A6000CBF8822003F0C8F8384603F0FDF80025B3
:103A700004E0705D03F0C0F8681CC5B2A542F8DB35
:103A8000FF2003F0B9F8FF2003F0B6F803F0D6F8F2
:103A900000BFDEE710B545F6A52003F0E5F810BD40
:103AA000014600BF080900EB8000420001F00F0052
:103AB0001044C0B270470146002204E0501CC2B25C
:103AC000A1F10A00C1B20A29F8DA100741EA106030
:103AD0007047000010B50121080708F0CBFD012058
:103AE00007F0B2FE012008F0E5FD002008F0E2FD3D
:103AF000012008F085FF00BF412008F063FF002887
:103B0000FAD04FF4807008F0F1FDFF200D490860F5
:103B10007F200D490860012008F0E2FD00F054FA12
:103B20000948006809494860064800688860002024
:103B30000860084600F0E4F810B905A00CF0F0F9B0
:103B400010BD00006402002060020020B83900208F
:103B500045525443205072657363616C6572204313
:103B60006F6E666967206661696C656421210D0A64
:103B70000000000008B50022009200200021104A39
:103B8000126802F04002CAB9421E0D4B1A6000BF13
:103B90000B4A126802F04001009A521C0092009AEF
:103BA000B2F5803F01D00029F2D0054A126802F038
:103BB00040020AB1012002E0002000E0012008BD1F
:103BC0000C2800400348006820F08000014908608C
:103BD000704700000C28004038B505460C46002010
:103BE00000901348006800901148001F00681149B8
:103BF000084000900098000CE0700098C0F304208A
:103C00006070009800F03F00A0700098C0F3423050
:103C100020705DB9E078FFF743FFE0706078FFF750
:103C20003FFF6070A078FFF73BFFA07038BD000039
:103C3000082800403FFFFF0038B505460C4600202D
:103C40000090144800680090124808380068124933
:103C5000084000900098C0F3054020700098C0F321
:103C600006206070009800F07F00A070009800F4BB
:103C70008000000CE0705DB92078FFF711FF207024
:103C80006078FFF70DFF6070A078FFF709FFA07064
:103C900038BD0000082800407F7F7F00CA22174BF4
:103CA0001A6053221A6091B1144A1C3A126820F02B
:103CB00004031A43114B1C3B1A60104A1C32126851
:103CC00000F004031A430D4B1C331A6011E00B4A39
:103CD0001C3A126820F004039A43084B1C3B1A60FC
:103CE000064A1C32126800F004039A43034B1C334B
:103CF0001A60FF22014B1A60704700002428004020
:103D000030B504460025CA201549086053200860D4
:103D1000FFF730FF00B91DE011481C38006820F0A3
:103D200040000F491C3908600846006821680843B4
:103D30000B491C3908600A491439A0680860084614
:103D40000068A18840EA0140054914390860FFF77E
:103D500039FF0125FF2002490860284630BD0000D8
:103D60002428004008B50146002000900448009037
:103D7000009800EB810000900098006808BD0000EA
:103D8000502800402DE9F04105460C46002600274A
:103D90004DB9607800F01000102804D1607820F050
:103DA00010000A30607005B908E06078FFF778FE0F
:103DB0000646A078FFF774FE064600BF55B1E078CE
:103DC0000004617840EA0120A1780843217840EAA4
:103DD000413611E0E078FFF76EFE4FEA0048607868
:103DE000FFF769FE48EA0028A078FFF764FE48EA7A
:103DF0000008207848EA4036CA201249086053205B
:103E00000860FFF7B7FE08B9002714E00E483040FD
:103E10000C4920390860FFF7D5FE0A481C380068B5
:103E200000F0200030B900F0CFF808B9002702E018
:103E3000012700E00127FF20024908603846BDE85D
:103E4000F0810000242800403FFFFF002DE9F041F1
:103E500005460C46002600274DB92E48006800F0A4
:103E6000400000B102E00020E07000BF0DE02948F2
:103E7000006800F0400020B12078FFF711FE0646F0
:103E800002E00020E07000BF00BF55B120780004C0
:103E9000617840EA0120A1780843E17840EA0146D0
:103EA00011E02078FFF707FE4FEA00486078FFF73F
:103EB00002FE48EA0028A078FFF7FDFD48EA000866
:103EC000E07848EA0046CA2012491C3108605320B5
:103ED0000860FFF74FFE08B9002713E00E48304096
:103EE0000C4908390860FFF76DFE0A48006800F0C9
:103EF000200030B900F068F808B9002702E0012777
:103F000000E00127FF2003491C3108603846BDE866
:103F1000F0810000082800407F7F7F0010B500205E
:103F20000E49C87008200870102048700020887062
:103F30000120FFF78BFF05200949087009208870D0
:103F4000072048702220C8700120FFF71BFF43F2B2
:103F5000F221002000F068F810BD0000500200209F
:103F60005402002010B504490020FFF735FE034934
:103F70000020FFF761FE10BD540200205002002017
:103F80000EB502208DF8080001208DF80B008DF889
:103F9000090000208DF80A0002A804F039FA4FF455
:103FA0000010009001208DF8060000208DF804001C
:103FB00008208DF80500684600F044F80121C80388
:103FC000FFF76CFE0EBD000008B500220092002035
:103FD0000021CA22134B1A6053221A60114A183A60
:103FE000126822F0A0020F4B183B1A6000BF0D4A66
:103FF000183A126802F02001009A521C0092009AAE
:10400000B2F5003F01D00029F1D0064A183A1268F3
:1040100002F020020AB1012000E00020FF22014B43
:104020001A6008BD2428004008B500220092044A06
:104030000092009A02EB80020092009A116008BD83
:1040400050280040002123498279002A3AD00A46AC
:10405000126803689A430B461A600A1D12680368C7
:104060009A430B1D1A60027911440A6803681A43C7
:104070000A60184A0832126803689A43154B0833DD
:104080001A601A1D126803689A43124B0C331A60A7
:104090004279102A0ED11A1F126803681A430D4B79
:1040A00008331A601A1D126803681A43094B0C334F
:1040B0001A600DE00749427911440A6803681A43FF
:1040C0000A6005E0027911440A6803689A430A60AD
:1040D000704700000004014070B505460C461646C6
:1040E0000CB9002070BD01210648817661782078E6
:1040F00041EA00210348C16100210348FFF77EFC2B
:104100000120EFE7C43900206004002008B500203A
:10411000009010214E4800F050FB09F01BFE09F002
:1041200009FE0020009009F025FE09F02FFD01286E
:1041300002D109F079FD0090009820F0FF00454978
:1041400088420DD044490098884209D00520FFF7E5
:1041500058F909F01BFD012802D109F065FD009016
:1041600000203E4908603C49491E0098884204D11D
:104170004FF47E20394908605EE039490098884252
:1041800007D14FF4FC2035490860012035490870FB
:1041900052E03349491C0098884206D0009820F428
:1041A00070402D49491E884207D14FF47E202B498B
:1041B000086001202B4908703EE029494C390098DD
:1041C000884207D14FF4FF10244908600120254997
:1041D000087031E0224943390098884206D12248CC
:1041E0001E49086001201F49087025E0009820F052
:1041F000FF001849884205D0009820F47040164905
:10420000884204D14FF4FF101449086014E000986C
:1042100020F0FF001549884206D0009820F4704035
:104220000D49491C884203D10F480C49086003E03E
:104230004FF4FF10094908600D490098884202D1E7
:10424000094806490860002009F094FD08BD0000F7
:104250000008014000461F001530EF000C0400204C
:104260008D25BF001004002000E03F0000471F0024
:1042700017405E0008B5684600F0A1FA0120ADF8CD
:10428000000000208DF803006946024800F004F8A1
:1042900008BD0000000801402DE9F041024600255C
:1042A0000026002000230024002791F803C00CF012
:1042B0000F0591F803C00CF0100CBCF1000F03D0F7
:1042C00091F802C04CEA050591F800C0BCF1000F5E
:1042D00031D0146800202BE04FF0010C0CFA00F3F1
:1042E000B1F800C00CEA03069E4220D183004FF0D3
:1042F0000F0C0CFA03F7BC4305FA03FC4CEA040468
:1043000091F803C0BCF1280F06D14FF0010C0CFA54
:1043100000FCC2F814C00AE091F803C0BCF1480FD9
:1043200005D14FF0010C0CFA00FCC2F810C0401C83
:104330000828D1D31460B1F800C0BCF1FF0F34DD00
:10434000546800202EE000F1080C4FF0010808FA34
:104350000CF3B1F800C00CEA03069E4221D18300A1
:104360004FF00F0C0CFA03F7BC4305FA03FC4CEAC0
:10437000040491F803C0BCF1280F05D100F1080C2A
:1043800008FA0CF8C2F8148091F803C0BCF1480F89
:1043900007D100F1080C4FF0010808FA0CF8C2F838
:1043A0001080401C0828CED35460BDE8F081000086
:1043B000F0B50446B4F1004F72D90023002224F076
:1043C0000045EB0905F07F052A0905F00F05052BCF
:1043D00003D0970005FA07F603E05708BF0005FA77
:1043E00007F6062B15D2DFE803F00305080B0E11C4
:1043F000EA480FE0E948001D0CE0E848083009E011
:10440000E6480C3006E0E548103003E0E34814309D
:1044100000E000BF00BF5AB9052B04D1076827F0A0
:10442000030707604AE0076827F00F07076045E0C9
:10443000012A0BD1052B04D1076827F00C07076070
:104440003CE0076827F0F007076037E0022A0BD14D
:10445000052B04D1076827F0300707602EE00768B6
:1044600027F47067076029E0032A0BD1052B04D1DC
:10447000076827F0C007076020E0076827F4704747
:1044800007601BE0042A04D1076827F4702707603F
:1044900014E0052A05D1076827F4700707600DE0CE
:1044A00012E0062A04D1076827F07067076005E06C
:1044B000072A03D1076827F070470760012902D156
:1044C00007683743076067E1B4F5406F77D020DCB9
:1044D000402C75D00CDC042C3FD004DC012C4ED0D9
:1044E000022C6ED138E0102C59D0202CF9D169E083
:1044F000B4F5007F76D005DC802C77D0B4F5807FD2
:10450000EFD197E0B4F5407F6ED0B4F5006FE8D1FD
:10451000C0E0B4F1807F68D011DCB4F5803F1ED0DC
:1045200006DCB4F5804F71D0B4F5004FD9D115E059
:10453000B4F5003F14D0B4F5802FD2D111E0B4F11E
:10454000007F74D0B4F1806F72D0B4F1884F70D016
:10455000B4F1904FC5D10DE100BF00BF00BF00BF57
:1045600000BF8E4820384068A0438C4A203A5060F3
:10457000012903D110464068204350600BE1874871
:1045800020384068864A1040844A203A5060012909
:1045900004D11046406840F001005060FBE07F48C5
:1045A0002038406820F030007C4A203A50600129D1
:1045B00004D11046406840F010005060EBE079E014
:1045C00025E0E7E075482038406820F03000734A65
:1045D000203A5060012904D11046406840F0200084
:1045E0005060D8E036E001E044E083E06B482038DA
:1045F000406820F0C000694A203A5060012904D187
:104600001046406840F080005060C4E062E06348BB
:104610002038406820F0C000604A203A50600129EC
:1046200004D11046406840F040005060B3E071E0B3
:1046300080E08FE059482038406820F44070574AA5
:10464000203A5060012904D11046406840F480703F
:104650005060A0E051482038406820F440704F4A34
:10466000203A5060012904D11046406840F400709F
:10467000506090E049482038406820F44070474A34
:10468000203A5060012904D11046406840F440703F
:10469000506080E041482038406820F440603F4A44
:1046A000203A5060012904D11046406840F400606F
:1046B000506070E039482038406820F44060374A44
:1046C000203A5060012904D11046406840F440600F
:1046D000506060E031482038406820F4C0402F4AE4
:1046E000203A5060012904D11046406840F48040CF
:1046F000506050E029482038406820F0E060274AA8
:10470000203A5060012904D11046406840F0807082
:10471000506040E021482038406820F0E0601F4AA7
:10472000203A5060012904D11046406840F00070E2
:10473000506030E019482038406820F0E060174AA7
:10474000203A5060012904D11046406840F0806052
:10475000506020E011482038C06920F040600F4AC6
:10476000203AD061012904D11046C06940F0806030
:10477000D06110E009482038C06920F04060074A45
:10478000203AD061012904D11046C06940F0006090
:10479000D06100E000BF00BFF0BD0000200001407C
:1047A000FEFFFF7F0246002093680B400BB1012003
:1047B00000E00020704741617047016170474FF68B
:1047C000FF710180022181700421C17070470000D7
:1047D000014800687047000020040020014663295A
:1047E00001DD002070470A2091FBF0F300FB13105D
:1047F0000A2391FBF3F300EB0310C2B21046F1E77A
:1048000010B5104910480068FBF7EFFD0446FCF7AF
:1048100004F80E4908610E490E480068FBF7E5FDF3
:104820000446FBF7FAFF094988810B490B480068E9
:10483000FBF7DBFD0446FBF7F0FF81B20348C181C3
:1048400010BD000000007A4418020020C439002086
:104850000000C84210020020000020410C0200208D
:1048600070B5264805F07AF92549086025480068A2
:10487000FCF700F804460022234BFCF727F838D257
:104880002248016822480068FCF754F828D11C48E7
:1048900000682049096888420CD3194800681D49FE
:1048A0000968401A4EF66021884201D301200FE0CA
:1048B00000200DE017480068C0F1FF30104909687A
:1048C00008444EF66021884201D3012000E0002018
:1048D00098B10120104981F8340001F005FF0CE087
:1048E000074800680B4908600848006808490860E4
:1048F00003E0034800680749086070BD000000201D
:10490000B4020020100200200000F03F1802002036
:10491000AC020020B8020020C439002010B52A489B
:10492000007805281FD2DFE800F0030A11181B00E9
:104930000221002008F078FA2449086019E00221D9
:10494000012008F071FA2249086012E002211320C8
:1049500008F06AFA1F4908600BE008F01DFA08E049
:1049600008F086FA05E008F087F90020164908707B
:1049700000BF00BF14480078401C1349087013485A
:10498000006840F6047188420BD11148006841F27A
:104990008311884205D10F48006840F6FF718842B4
:1049A00010D001F0A1FE094801680BA00BF0B8FA85
:1049B000074801680FA00BF0B3FA0648016814A07D
:1049C0000BF0AEFA10BD000040020020A401002050
:1049D000A8010020AC010020746573745531365F66
:1049E000535953434F4E44617461203D2025780A4A
:1049F00020000000746573745531365F454D554392
:104A00004F4E44617461203D2025780A200000004B
:104A1000746573745531365F454D55434F4E32447E
:104A2000617461203D2025780A20000070B50024C3
:104A3000002517E06006040E01200C4908600A20DA
:104A40000CF0A0FD00200A49C1F8A0010A200CF0DA
:104A500099FD064888380068012801D144F0010416
:104A6000681CC5B2082DE5DB204670BDA08121423F
:104A70000080214210B50446204600F001F810BD28
:104A800070B505462E4600241AE0802020413040B3
:104A900018B101200C49086002E000200A490860B2
:104AA00001200949091D08600A200CF06BFD002057
:104AB0000649C1F8A0010A200CF064FD601CC4B2D4
:104AC000082CE2DB70BD00009C8121420080214265
:104AD00070B5044644F080052846FFF7D1FF70BD4D
:104AE00010B50020094908600A200CF04BFDEA20AF
:104AF000FFF7C6FFDC20FFF7C3FF01200449C1F820
:104B0000A4010A200CF03EFD10BD0000A48121424A
:104B10000080214210B50020094908600A200CF0ED
:104B200031FDEA20FFF7ACFFE520FFF7A9FF0120E8
:104B30000449C1F8A4010A200CF024FD10BD0000B6
:104B4000A48121420080214270477047704770471E
:104B5000704770477047704770477047704770479D
:104B6000704770477047704770477047704770478D
:104B7000704770477047704770477047704770477D
:104B8000704770477047704770477047704770476D
:104B9000704700002DE9F041CCB005460E461446A2
:104BA00004F10F0087B24FF0000806B11CB90020D5
:104BB0004CB0BDE8F0817D208DF80400D0208DF848
:104BC0000500F8B28DF80600380A8DF807000020BD
:104BD0008DF808008DF809008DF80A008DF80B009B
:104BE0001A4800788DF80C0018480088000A8DF8E3
:104BF0000D0016480068000C8DF80E001348006880
:104C0000000E8DF80F00E8B28DF81100280A8DF81B
:104C10001000224631460DF11200FBF712FB04F1A1
:104C20000E0081B201A80DF0E2FA04F10E0101AA12
:104C30005054481C82B201A9002002F0ABF903488D
:104C40000068401C014908600120B1E7A40300206E
:104C500010B50446207804281AD0052804D0062868
:104C60001DD007282BD122E0FCF768FD78B1012088
:104C70001449887000211448FEF7C0FE134A082129
:104C8000322004F00FFF962164200EF00FFA17E097
:104C900001200C498870002002F090FF10E00120F4
:104CA00008498870FCF754FAFCF738FB08E001204B
:104CB0000449887006490748FEF7A0FE00E000BFDF
:104CC00000BF10BD2404002050050020000000207B
:104CD00074040020CC06002010B504462078022879
:104CE00008D1002005498870054908680021FEF7B1
:104CF00085FE00E000BF00BF10BD000024040020BE
:104D00002805002010B504462078022808D100208C
:104D100005498870054908680021FEF76FFE00E02C
:104D200000BF00BF10BD0000240400203C0500208F
:104D30000178012905D0032902D0042909D104E012
:104D400000BF0021044A917004E00021024A9170E2
:104D500000E000BF00BF70472404002010B50446E7
:104D6000207804281FD006DC01280BD002280DD0A3
:104D7000032846D112E00F2819D0102825D0112879
:104D80003FD130E00020204988703BE01F48FEF70B
:104D900021FE00211D48FEF731FE33E000211C48B2
:104DA000FEF72CFE2EE0002002F008FF2AE0012092
:104DB0001849087602F01AFE174A08214FF4FA60E3
:104DC00004F070FE09F0F2FC1CE0022011490876A4
:104DD00002F00CFE104A08214FF4FA6004F062FE63
:104DE00009F0E4FC0EE003200A49087602F0FEFD1B
:104DF000094A08214FF4FA6004F054FE09F0D6FC89
:104E000000E000BF00BF10BD240400207805002092
:104E100050050020306800200000002010B5044636
:104E2000207806281CD006DC01280BD002280DD0E3
:104E3000032842D10FE007281DD0082829D01228C6
:104E40003BD134E000201E49887037E000211D4826
:104E5000FEF7D4FD32E000211B48FEF7CFFD2DE028
:104E6000FEF72AF9194A08214FF4FA6004F01AFEF5
:104E700009F09CFC22E001201549487602F0B6FDBD
:104E8000124A08214FF4FA6004F00CFE09F08EFC7F
:104E900014E000200E49487602F0A8FD0B4A0821D4
:104EA0004FF4FA6004F0FEFD09F080FC06E00F21EB
:104EB00041F2057007F094FE00E000BF00BF10BD96
:104EC00024040020640500208C0500200000002040
:104ED0003068002010B504462078012802D002284E
:104EE00009D103E000200549887005E0002104484D
:104EF000FEF784FD00E000BF00BF10BD24040020C9
:104F00007805002010B50446207806281FD006DC5E
:104F1000032809D004280AD005283CD10FE007282F
:104F20001DD00F2837D122E0FDF7D4FF34E0022056
:104F30001A49887000211A48FEF760FD2CE0022013
:104F40001649887000211748FEF758FD24E002201A
:104F50001249887000211448FEF750FD1CE0022021
:104F60000E49887000211148FEF748FD14E0FCF757
:104F7000E5FB78B101200949887000210C48FEF753
:104F80003DFD0C4A0821322004F08CFD962164205E
:104F90000EF08CF800E000BF00BF10BD240400201C
:104FA000B4050020C8050020DC050020F005002025
:104FB000500500200000002010B5044620780A2883
:104FC00020D006DC022809D008280FD009282BD1D0
:104FD00012E00B281CD00E2826D11FE00020144917
:104FE000887000211348FEF709FD1EE0032141F6F9
:104FF0008D0006F01BFE18E0062141F68D0006F03C
:1050000015FE12E0092141F68D0006F00FFE0CE0BE
:105010000C2141F68D0006F009FE06E0012141F663
:105020008D0007F0DDFD00E000BF00BF10BD0000F7
:1050300024040020A005002010B5044620780A288A
:1050400020D006DC022809D008280FD009282BD14F
:1050500012E00B281CD00E2826D11FE00020144996
:10506000887000211348FEF7C9FC1EE0052141F6B7
:105070000D1006F0DBFD18E00A2141F60D1006F0D8
:10508000D5FD12E00F2141F60D1006F0CFFD0CE02A
:10509000142141F60D1006F0C9FD06E0012141F68C
:1050A0000D1007F09DFD00E000BF00BF10BD000027
:1050B00024040020A005002010B5044620780A280A
:1050C00020D006DC022809D008280FD009282BD1CF
:1050D00012E00B281CD00E2826D11FE00020144916
:1050E000887000211348FEF789FC1EE01E2141F65E
:1050F0008D1006F09BFD18E03C2141F68D1006F066
:1051000095FD12E05A2141F68D1006F08FFD0CE05E
:10511000782141F68D1006F089FD06E0012141F667
:105120008D1007F05DFD00E000BF00BF10BD000066
:1051300024040020A005002010B50446207805288E
:105140000AD1FCF7FBFA30B1012005498870002133
:105150000448FEF753FC00E000BF00BF10BD000094
:10516000240400205005002010B5044620780A28A9
:1051700020D006DC022809D008280FD009282BD11E
:1051800012E00B281CD00E2826D11FE00020144965
:10519000887000211348FEF731FC1EE0062141F61D
:1051A0000D2006F043FD18E00C2141F60D2006F01D
:1051B0003DFD12E0122141F60D2006F037FD0CE016
:1051C000172141F60D2006F031FD06E0012141F6E0
:1051D0000D2007F005FD00E000BF00BF10BD00007E
:1051E00024040020A005002010B5044620780228E1
:1051F00005D1044908680021FEF700FC00E000BF6B
:1052000000BF10BD7805002010B5044620780128A5
:1052100004D0022806D012280ED107E00020084949
:1052200088700AE000200649887006E00F2141F6E8
:10523000053007F0D5FC00E000BF00BF10BD000046
:105240002404002010B504462078022805D1044922
:1052500008680021FEF7D2FB00E000BF00BF10BDD0
:105260007805002010B504462078022805D10449AD
:1052700008680021FEF7C2FB00E000BF00BF10BDC0
:105280007805002010B504462078052813D1FCF7D6
:1052900055FA78B101200949887000210848FEF7C5
:1052A000ADFB084A0821322004F0FCFB9621642063
:1052B0000DF0FCFE00E000BF00BF10BD2404002084
:1052C00050050020000000200178012903D10021B1
:1052D000024A917000E000BF00BF70472404002024
:1052E00010B504462078012804D0022806D00428EE
:1052F0000CD107E000200749887008E0012002F087
:105300005DFC04E0022002F059FC00E000BF00BF99
:1053100010BD00002404002010B5044620780128A8
:1053200002D0022808D103E000200549887004E07B
:10533000012002F043FC00E000BF00BF10BD0000F0
:105340002404002010B504462078042809D005283C
:105350000CD101200749887007490848FEF74EFB29
:1053600005E005490648FEF749FB00E000BF00BF25
:1053700010BD0000240400209C04002050050020E3
:10538000C404002010B504462078062818D2DFE8AF
:1053900000F01703070B0F1300200B49887010E073
:1053A0000120FCF7B9F80CE00120FCF73BF808E01D
:1053B0000A20FCF7B1F804E00A20FCF733F800E01B
:1053C00000BF00BF10BD00002404002010B504463B
:1053D0002078012804D0022806D003280CD107E049
:1053E00000200749887008E00120FCF795F804E0E8
:1053F0000A20FCF791F800E000BF00BF10BD0000DC
:10540000240400200178012902D0022908D103E0F8
:105410000021054A917004E00021034A917000E0E8
:1054200000BF00BF7047000024040020017801295C
:1054300002D0022908D103E00021054A917004E05E
:105440000021034A917000E000BF00BF70470000D8
:10545000240400200178012902D0022908D103E0A8
:105460000021054A917004E00021034A917000E098
:1054700000BF00BF7047000024040020017801290C
:1054800002D0022908D103E00021054A917004E00E
:105490000021034A917000E000BF00BF7047000088
:1054A000240400200178012902D0022908D103E058
:1054B0000021054A917004E00021034A917000E048
:1054C00000BF00BF704700002404002001780129BC
:1054D00002D0022908D103E00021054A917004E0BE
:1054E0000021034A917000E000BF00BF7047000038
:1054F000240400200178012902D0022908D103E008
:105500000021054A917004E00021034A917000E0F7
:1055100000BF00BF70470000240400207047000057
:1055200010B504462078022805D1044908680021F6
:10553000FEF764FA00E000BF00BF10BDC404002005
:1055400010B504462078022805D1044908680021D6
:10555000FEF754FA00E000BF00BF10BDD8040020E1
:1055600010B504462078022808D10020054988702B
:10557000054908680021FEF741FA00E000BF00BFBE
:1055800010BD000024040020EC04002010B50446E7
:105590002078022808D1002005498870054908684C
:1055A0000021FEF72BFA00E000BF00BF10BD000095
:1055B000240400200005002010B5044620780228AD
:1055C00008D1002005498870054908680021FEF7C8
:1055D00015FA00E000BF00BF10BD00002404002049
:1055E0001405002010B560210348FAF743FE60213E
:1055F0000248FAF73FFE10BDB2520020764F00205D
:1056000070B504460D460CB9002070BD172D01D0B1
:105610000020FAE7172221463046FAF712FE307CC6
:1056200008B10020F1E7172221460648FAF709FEE3
:105630000448B0F8110010B9012003490870012096
:10564000E3E7000092510020700300200246012091
:10565000704770B504460E460CB1022E01D00020F2
:1056600070BD25462878012801DB0020F8E768781E
:10567000012805D100231A46394606200DF05CF9B1
:105680000120EDE702460120704700002DE9F047B8
:1056900080460E460027B8F1000F01D00F2E02DA27
:1056A0000020BDE8F087454647E028787D2802D1F4
:1056B0006878D02801D00020F3E7A878E97840EA9C
:1056C0000124B4F5967F01DC0F2C01DA0020E8E715
:1056D000B44205DD21461BA00AF022FC0020E0E7D1
:1056E000687B297B40EA0129A4F10F0084B222469D
:1056F00005F10E011648FAF7A4FD002713E015483E
:1057000030F8370048450CD1124800EBC70040681C
:1057100030B1104800EBC700214642680C48904762
:1057200003E0781CC7B20E2FE9DB00BF301B0F3837
:1057300086B204F10F0008EB00050F2EB5DC012046
:10574000AFE70000323467636D643D25640D0A00E5
:1057500022530020E03F010870B505460C460DB10C
:10576000022C01D0002070BD1348007868B11348A6
:10577000007818B111480078062806D10120FBF7FF
:10578000C7FF00200C4908700BE00B48007840B1BF
:105790000B48007828B1042000F028FF00200849B9
:1057A00008700848007828B1002000F01FFF002092
:1057B000044908700120D6E772030020C439002094
:1057C000AA030020AB03002070B505460E46112E3B
:1057D00001D0002070BD2C7C012C01DB0020F9E7FA
:1057E00000231A46214607200DF0A6F80120F1E714
:1057F00070B505460C46102C01D0002070BD00236A
:105800001A46194608200DF097F80120F6E7000027
:105810002DE9F04198B00746884600240025002075
:10582000159016901790002654216846FAF722FD2D
:105830001FB9002018B0BDE8F08138785C490870C5
:10584000084600780C2808DCA8F101000978C90096
:10585000884202D15648007808B90020EAE742465B
:10586000791C5448FAF7EDFC5248007850B10320F7
:105870005149087000231A46194605200DF05CF8BE
:105880000020D7E7002407E04A4800EBC400407836
:105890002844C5B2601CC4B2454800788442F3DB9A
:1058A000302D0AD003204449087000231A461946B7
:1058B00005200DF041F80020BCE700203E490870AB
:1058C0003B4800788DF850000026002440E0002579
:1058D0001AE0384800EBC4004088364901EBC501A6
:1058E000498888420ED1334800EBC4008088314992
:1058F00001EBC5018988884204D115A8405D15A92E
:10590000085503E0681CC5B2A542E2DB00BFA54212
:105910001CD115A80655701CC6B2264800EBC40061
:1059200080884FF47A714843711E04AA42F821001E
:10593000204800EBC40040884FF47A714843711E40
:105940004DF82100042E01DD002073E7601CC4B275
:10595000174800788442BADB0025002411E015AB1B
:105960001A5D144B03EBC403597808AB5819FAF7C6
:105970007AFC104800EBC40040782844C5B2601C93
:10598000C4B20B4800788442E9DB512269460B48D7
:10599000FAF757FC5123094A002108460CF082FA15
:1059A00000231A46194605200CF0C6FF012041E7E6
:1059B00071030020325100206D0300204F69002048
:1059C00070B505460E460DB1212E01D0002070BDE8
:1059D000212229460A48FAF734FC094804780020B5
:1059E000C4EBC401074A02F82100C4EBC40102EB76
:1059F000810108760021204609F0A8FE0120E6E793
:105A0000E7500020DC4400202DE9F04704460D4615
:105A100003270CB1092D02D00020BDE8F0872A46EB
:105A200021461E48FAF70DFC1C48007808B90020F2
:105A3000F3E701210020FBF709FE1948007804284C
:105A400001D007F0E1F815490879FDF759FA8046C9
:105A50001249C878FDF754FA814610498878FDF755
:105A60004FFA00F5FA664246494630460DF062FAB2
:105A70000A49C879FDF744FA064608498879FDF7CE
:105A80003FFA804605494879FDF73AFA81463246A1
:105A900041460DF073FA0120BFE700009F5000203F
:105AA000C439002070B505460E460DB9002070BD02
:105AB000122E01D00020FAE7122229462046FAF7DA
:105AC000C0FB207C022804D0012000F027FD00202C
:105AD000EDE7607C012802D0607C022806D100201E
